{
    "_format": "hh-sol-artifact-1",
    "contractName": "Bets",
    "sourceName": "contracts/Bets.sol",
    "abi": [
        {
            "inputs": [],
            "stateMutability": "nonpayable",
            "type": "constructor"
        },
        {
            "anonymous": false,
            "inputs": [
                {
                    "indexed": true,
                    "internalType": "bytes32",
                    "name": "id",
                    "type": "bytes32"
                }
            ],
            "name": "ChainlinkCancelled",
            "type": "event"
        },
        {
            "anonymous": false,
            "inputs": [
                {
                    "indexed": true,
                    "internalType": "bytes32",
                    "name": "id",
                    "type": "bytes32"
                }
            ],
            "name": "ChainlinkFulfilled",
            "type": "event"
        },
        {
            "anonymous": false,
            "inputs": [
                {
                    "indexed": true,
                    "internalType": "bytes32",
                    "name": "id",
                    "type": "bytes32"
                }
            ],
            "name": "ChainlinkRequested",
            "type": "event"
        },
        {
            "anonymous": false,
            "inputs": [
                {
                    "indexed": true,
                    "internalType": "address",
                    "name": "from",
                    "type": "address"
                },
                {
                    "indexed": true,
                    "internalType": "address",
                    "name": "to",
                    "type": "address"
                }
            ],
            "name": "OwnershipTransferRequested",
            "type": "event"
        },
        {
            "anonymous": false,
            "inputs": [
                {
                    "indexed": true,
                    "internalType": "address",
                    "name": "from",
                    "type": "address"
                },
                {
                    "indexed": true,
                    "internalType": "address",
                    "name": "to",
                    "type": "address"
                }
            ],
            "name": "OwnershipTransferred",
            "type": "event"
        },
        {
            "anonymous": false,
            "inputs": [
                {
                    "indexed": true,
                    "internalType": "bytes32",
                    "name": "requestId",
                    "type": "bytes32"
                },
                {
                    "indexed": false,
                    "internalType": "uint256",
                    "name": "volume",
                    "type": "uint256"
                }
            ],
            "name": "RequestVolume",
            "type": "event"
        },
        {
            "inputs": [],
            "name": "acceptOwnership",
            "outputs": [],
            "stateMutability": "nonpayable",
            "type": "function"
        },
        {
            "inputs": [
                {
                    "internalType": "uint256",
                    "name": "_betId",
                    "type": "uint256"
                },
                {
                    "internalType": "uint256",
                    "name": "_pricePrediction",
                    "type": "uint256"
                }
            ],
            "name": "bet",
            "outputs": [],
            "stateMutability": "payable",
            "type": "function"
        },
        {
            "inputs": [
                {
                    "internalType": "uint256",
                    "name": "",
                    "type": "uint256"
                },
                {
                    "internalType": "uint256",
                    "name": "",
                    "type": "uint256"
                }
            ],
            "name": "betPlayers",
            "outputs": [
                {
                    "internalType": "address payable",
                    "name": "player",
                    "type": "address"
                },
                {
                    "internalType": "uint256",
                    "name": "pricePrediction",
                    "type": "uint256"
                },
                {
                    "internalType": "uint256",
                    "name": "depositAmount",
                    "type": "uint256"
                }
            ],
            "stateMutability": "view",
            "type": "function"
        },
        {
            "inputs": [
                {
                    "internalType": "uint256",
                    "name": "",
                    "type": "uint256"
                }
            ],
            "name": "betRequest",
            "outputs": [
                {
                    "internalType": "bytes32",
                    "name": "",
                    "type": "bytes32"
                }
            ],
            "stateMutability": "view",
            "type": "function"
        },
        {
            "inputs": [
                {
                    "internalType": "uint256",
                    "name": "",
                    "type": "uint256"
                }
            ],
            "name": "bets",
            "outputs": [
                {
                    "internalType": "uint256",
                    "name": "betAmount",
                    "type": "uint256"
                },
                {
                    "internalType": "uint256",
                    "name": "futurePrice",
                    "type": "uint256"
                },
                {
                    "internalType": "uint256",
                    "name": "time",
                    "type": "uint256"
                },
                {
                    "internalType": "uint256",
                    "name": "lastTimeToParticipate",
                    "type": "uint256"
                },
                {
                    "internalType": "enum Bets.Status",
                    "name": "status",
                    "type": "uint8"
                },
                {
                    "internalType": "uint256",
                    "name": "finalPrice",
                    "type": "uint256"
                }
            ],
            "stateMutability": "view",
            "type": "function"
        },
        {
            "inputs": [
                {
                    "internalType": "uint256",
                    "name": "_time",
                    "type": "uint256"
                },
                {
                    "internalType": "uint256",
                    "name": "_lastTimeToParticipate",
                    "type": "uint256"
                },
                {
                    "internalType": "uint256",
                    "name": "_pricePrediction",
                    "type": "uint256"
                }
            ],
            "name": "createBet",
            "outputs": [],
            "stateMutability": "payable",
            "type": "function"
        },
        {
            "inputs": [
                {
                    "internalType": "bytes32",
                    "name": "_requestId",
                    "type": "bytes32"
                },
                {
                    "internalType": "uint256",
                    "name": "_volume",
                    "type": "uint256"
                }
            ],
            "name": "fulfill",
            "outputs": [],
            "stateMutability": "nonpayable",
            "type": "function"
        },
        {
            "inputs": [
                {
                    "internalType": "uint256",
                    "name": "timestamp",
                    "type": "uint256"
                },
                {
                    "internalType": "uint256",
                    "name": "_betId",
                    "type": "uint256"
                }
            ],
            "name": "getHistoricalPrice",
            "outputs": [
                {
                    "internalType": "bytes32",
                    "name": "requestId",
                    "type": "bytes32"
                }
            ],
            "stateMutability": "nonpayable",
            "type": "function"
        },
        {
            "inputs": [],
            "name": "owner",
            "outputs": [
                {
                    "internalType": "address",
                    "name": "",
                    "type": "address"
                }
            ],
            "stateMutability": "view",
            "type": "function"
        },
        {
            "inputs": [
                {
                    "internalType": "bytes32",
                    "name": "",
                    "type": "bytes32"
                }
            ],
            "name": "requestResponse",
            "outputs": [
                {
                    "internalType": "uint256",
                    "name": "",
                    "type": "uint256"
                }
            ],
            "stateMutability": "view",
            "type": "function"
        },
        {
            "inputs": [
                {
                    "internalType": "uint256",
                    "name": "_betId",
                    "type": "uint256"
                }
            ],
            "name": "rewards",
            "outputs": [],
            "stateMutability": "nonpayable",
            "type": "function"
        },
        {
            "inputs": [
                {
                    "internalType": "int256",
                    "name": "feed",
                    "type": "int256"
                },
                {
                    "internalType": "int256[]",
                    "name": "arr",
                    "type": "int256[]"
                }
            ],
            "name": "testCloset",
            "outputs": [
                {
                    "internalType": "int256",
                    "name": "",
                    "type": "int256"
                }
            ],
            "stateMutability": "pure",
            "type": "function"
        },
        {
            "inputs": [
                {
                    "internalType": "uint256",
                    "name": "timestamp",
                    "type": "uint256"
                }
            ],
            "name": "timestampToDate",
            "outputs": [
                {
                    "internalType": "string",
                    "name": "",
                    "type": "string"
                }
            ],
            "stateMutability": "pure",
            "type": "function"
        },
        {
            "inputs": [
                {
                    "internalType": "address",
                    "name": "to",
                    "type": "address"
                }
            ],
            "name": "transferOwnership",
            "outputs": [],
            "stateMutability": "nonpayable",
            "type": "function"
        },
        {
            "inputs": [],
            "name": "volume",
            "outputs": [
                {
                    "internalType": "uint256",
                    "name": "",
                    "type": "uint256"
                }
            ],
            "stateMutability": "view",
            "type": "function"
        }
    ],
    "bytecode": "0x6080604052600160045560006008553480156200001b57600080fd5b50338060008073ffffffffffffffffffffffffffffffffffffffff168273ffffffffffffffffffffffffffffffffffffffff16141562000092576040517f08c379a00000000000000000000000000000000000000000000000000000000081526004016200008990620003da565b60405180910390fd5b81600660006101000a81548173ffffffffffffffffffffffffffffffffffffffff021916908373ffffffffffffffffffffffffffffffffffffffff160217905550600073ffffffffffffffffffffffffffffffffffffffff168173ffffffffffffffffffffffffffffffffffffffff16146200011a576200011981620001bf60201b60201c565b5b5050506200014273326c977e6efc84e512bb9c30f76e30c160ed06fb620002f160201b60201c565b620001677340193c8518bb267228fc409a613bdbd8ec5a97b36200033560201b60201c565b7f6361393833363663633733313439353762386330313263373266303561656562600a81905550600a670de0b6b3a76400006001620001a7919062000435565b620001b39190620004c5565b600b819055506200056f565b3373ffffffffffffffffffffffffffffffffffffffff168173ffffffffffffffffffffffffffffffffffffffff16141562000231576040517f08c379a000000000000000000000000000000000000000000000000000000000815260040162000228906200054d565b60405180910390fd5b80600760006101000a81548173ffffffffffffffffffffffffffffffffffffffff021916908373ffffffffffffffffffffffffffffffffffffffff1602179055508073ffffffffffffffffffffffffffffffffffffffff16600660009054906101000a900473ffffffffffffffffffffffffffffffffffffffff1673ffffffffffffffffffffffffffffffffffffffff167fed8889f560326eb138920d842192f0eb3dd22b4f139c87a2c57538e05bae127860405160405180910390a350565b80600260006101000a81548173ffffffffffffffffffffffffffffffffffffffff021916908373ffffffffffffffffffffffffffffffffffffffff16021790555050565b80600360006101000a81548173ffffffffffffffffffffffffffffffffffffffff021916908373ffffffffffffffffffffffffffffffffffffffff16021790555050565b600082825260208201905092915050565b7f43616e6e6f7420736574206f776e657220746f207a65726f0000000000000000600082015250565b6000620003c260188362000379565b9150620003cf826200038a565b602082019050919050565b60006020820190508181036000830152620003f581620003b3565b9050919050565b6000819050919050565b7f4e487b7100000000000000000000000000000000000000000000000000000000600052601160045260246000fd5b60006200044282620003fc565b91506200044f83620003fc565b9250817fffffffffffffffffffffffffffffffffffffffffffffffffffffffffffffffff04831182151516156200048b576200048a62000406565b5b828202905092915050565b7f4e487b7100000000000000000000000000000000000000000000000000000000600052601260045260246000fd5b6000620004d282620003fc565b9150620004df83620003fc565b925082620004f257620004f162000496565b5b828204905092915050565b7f43616e6e6f74207472616e7366657220746f2073656c66000000000000000000600082015250565b60006200053560178362000379565b91506200054282620004fd565b602082019050919050565b60006020820190508181036000830152620005688162000526565b9050919050565b613aff806200057f6000396000f3fe6080604052600436106100e85760003560e01c80639062ce7d1161008a578063c618a1e411610059578063c618a1e414610305578063de5101af14610330578063f2fde38b1461036d578063f301af4214610396576100e8565b80639062ce7d14610230578063acf3e74d1461024c578063c1cbd1b014610289578063c479ffd1146102c8576100e8565b80634357855e116100c65780634357855e146101a95780636ffcc719146101d257806379ba5097146101ee5780638da5cb5b14610205576100e8565b8063199ea90d146100ed57806322af00fa1461012a5780633d85b4321461016c575b600080fd5b3480156100f957600080fd5b50610114600480360381019061010f9190612508565b6103bf565b6040516101219190612573565b60405180910390f35b34801561013657600080fd5b50610151600480360381019061014c91906125c4565b6103d8565b60405161016396959493929190612677565b60405180910390f35b34801561017857600080fd5b50610193600480360381019061018e91906125c4565b610421565b6040516101a091906126f1565b60405180910390f35b3480156101b557600080fd5b506101d060048036038101906101cb9190612738565b610439565b005b6101ec60048036038101906101e79190612778565b61059a565b005b3480156101fa57600080fd5b506102036108d1565b005b34801561021157600080fd5b5061021a610a68565b60405161022791906127f9565b60405180910390f35b61024a60048036038101906102459190612814565b610a92565b005b34801561025857600080fd5b50610273600480360381019061026e9190612778565b610c7b565b60405161028091906126f1565b60405180910390f35b34801561029557600080fd5b506102b060048036038101906102ab9190612778565b610e54565b6040516102bf93929190612888565b60405180910390f35b3480156102d457600080fd5b506102ef60048036038101906102ea91906128bf565b610ebb565b6040516102fc91906128ec565b60405180910390f35b34801561031157600080fd5b5061031a610ed3565b60405161032791906128ec565b60405180910390f35b34801561033c57600080fd5b50610357600480360381019061035291906125c4565b610ed9565b604051610364919061298f565b60405180910390f35b34801561037957600080fd5b50610394600480360381019061038f91906129dd565b610f79565b005b3480156103a257600080fd5b506103bd60048036038101906103b891906125c4565b610f8d565b005b6000806103cc848461122d565b90508091505092915050565b600c6020528060005260406000206000915090508060000154908060010154908060020154908060030154908060040160009054906101000a900460ff16908060050154905086565b600e6020528060005260406000206000915090505481565b816005600082815260200190815260200160002060009054906101000a900473ffffffffffffffffffffffffffffffffffffffff1673ffffffffffffffffffffffffffffffffffffffff163373ffffffffffffffffffffffffffffffffffffffff16146104db576040517f08c379a00000000000000000000000000000000000000000000000000000000081526004016104d290612a7c565b60405180910390fd5b6005600082815260200190815260200160002060006101000a81549073ffffffffffffffffffffffffffffffffffffffff0219169055807f7cc135e0cebb02c3480ae5d74d377283180a2601f8f644edf7987b009316c63a60405160405180910390a2827f673b38182859a514d734bdfcb49d3a05c4a641dec9311d9894c9717bcb79af768360405161056e91906128ec565b60405180910390a281600f60008581526020019081526020016000208190555081600981905550505050565b8160085410156105df576040517f08c379a00000000000000000000000000000000000000000000000000000000081526004016105d690612ae8565b60405180910390fd5b600c6000838152602001908152602001600020600301544210610637576040517f08c379a000000000000000000000000000000000000000000000000000000000815260040161062e90612b7a565b60405180910390fd5b600c600083815260200190815260200160002060000154341015610690576040517f08c379a000000000000000000000000000000000000000000000000000000000815260040161068790612c0c565b60405180910390fd5b60005b600d600084815260200190815260200160002080549050811015610802573373ffffffffffffffffffffffffffffffffffffffff16600d600085815260200190815260200160002082815481106106ed576106ec612c2c565b5b906000526020600020906003020160000160009054906101000a900473ffffffffffffffffffffffffffffffffffffffff1673ffffffffffffffffffffffffffffffffffffffff161415610776576040517f08c379a000000000000000000000000000000000000000000000000000000000815260040161076d90612ca7565b60405180910390fd5b81600d6000858152602001908152602001600020828154811061079c5761079b612c2c565b5b90600052602060002090600302016001015414156107ef576040517f08c379a00000000000000000000000000000000000000000000000000000000081526004016107e690612d13565b60405180910390fd5b80806107fa90612d62565b915050610693565b50600d600083815260200190815260200160002060405180606001604052803373ffffffffffffffffffffffffffffffffffffffff16815260200183815260200134815250908060018154018082558091505060019003906000526020600020906003020160009091909190915060008201518160000160006101000a81548173ffffffffffffffffffffffffffffffffffffffff021916908373ffffffffffffffffffffffffffffffffffffffff160217905550602082015181600101556040820151816002015550505050565b600760009054906101000a900473ffffffffffffffffffffffffffffffffffffffff1673ffffffffffffffffffffffffffffffffffffffff163373ffffffffffffffffffffffffffffffffffffffff1614610961576040517f08c379a000000000000000000000000000000000000000000000000000000000815260040161095890612df7565b60405180910390fd5b6000600660009054906101000a900473ffffffffffffffffffffffffffffffffffffffff16905033600660006101000a81548173ffffffffffffffffffffffffffffffffffffffff021916908373ffffffffffffffffffffffffffffffffffffffff1602179055506000600760006101000a81548173ffffffffffffffffffffffffffffffffffffffff021916908373ffffffffffffffffffffffffffffffffffffffff1602179055503373ffffffffffffffffffffffffffffffffffffffff168173ffffffffffffffffffffffffffffffffffffffff167f8be0079c531659141344cd1fd0a4f28419497f9722a3daafe3b4186f6b6457e060405160405180910390a350565b6000600660009054906101000a900473ffffffffffffffffffffffffffffffffffffffff16905090565b600034118015610aa25750600081115b610ae1576040517f08c379a0000000000000000000000000000000000000000000000000000000008152600401610ad890612e89565b60405180910390fd5b60006040518060c0016040528034815260200183815260200185815260200184815260200160006002811115610b1a57610b19612600565b5b81526020016000815250905080600c600060085481526020019081526020016000206000820151816000015560208201518160010155604082015181600201556060820151816003015560808201518160040160006101000a81548160ff02191690836002811115610b8f57610b8e612600565b5b021790555060a08201518160050155905050600d6000600854815260200190815260200160002060405180606001604052803373ffffffffffffffffffffffffffffffffffffffff16815260200184815260200134815250908060018154018082558091505060019003906000526020600020906003020160009091909190915060008201518160000160006101000a81548173ffffffffffffffffffffffffffffffffffffffff021916908373ffffffffffffffffffffffffffffffffffffffff16021790555060208201518160010155604082015181600201555050610c756112ed565b50505050565b600080610c92600a5430634357855e60e01b611307565b90506000610c9f85610ed9565b9050600081604051602001610cb49190612f57565b6040516020818303038152906040529050610d046040518060400160405280600781526020017f55726c203d3e200000000000000000000000000000000000000000000000000081525082611338565b610d4e6040518060400160405280600381526020017f676574000000000000000000000000000000000000000000000000000000000081525082856113d49092919063ffffffff16565b610dcd6040518060400160405280600481526020017f70617468000000000000000000000000000000000000000000000000000000008152506040518060400160405280601d81526020017f6d61726b65745f646174612c63757272656e745f70726963652c757364000000815250856113d49092919063ffffffff16565b6000670de0b6b3a76400009050610e246040518060400160405280600581526020017f74696d657300000000000000000000000000000000000000000000000000000081525082866114079092919063ffffffff16565b610e3084600b5461143a565b945084600e6000888152602001908152602001600020819055505050505092915050565b600d6020528160005260406000208181548110610e7057600080fd5b9060005260206000209060030201600091509150508060000160009054906101000a900473ffffffffffffffffffffffffffffffffffffffff16908060010154908060020154905083565b600f6020528060005260406000206000915090505481565b60095481565b60606000806000610ee985611471565b925092509250606060098311610f2857610f02836114a0565b604051602001610f129190612f9f565b6040516020818303038152906040529050610f34565b610f31836114a0565b90505b6000610f3f836114a0565b82610f49876114a0565b604051602001610f5b93929190612feb565b60405160208183030381529060405290508095505050505050919050565b610f81611601565b610f8a81611693565b50565b600c600082815260200190815260200160002060020154421015610fe6576040517f08c379a0000000000000000000000000000000000000000000000000000000008152600401610fdd90613086565b60405180910390fd5b600080600d6000848152602001908152602001600020805490509050606060005b828110156110bc57600d6000868152602001908152602001600020818154811061103457611033612c2c565b5b9060005260206000209060030201600201548461105191906130a6565b9350600d6000868152602001908152602001600020818154811061107857611077612c2c565b5b90600052602060002090600302016001015482828151811061109d5761109c612c2c565b5b60200260200101818152505080806110b490612d62565b915050611007565b5060006110df600c60008781526020019081526020016000206002015486610c7b565b90506000600f60008381526020019081526020016000205490506000611105828561122d565b905060005b600d6000898152602001908152602001600020805490508110156112225781600d60008a8152602001908152602001600020828154811061114e5761114d612c2c565b5b906000526020600020906003020160010154141561120f57600d6000898152602001908152602001600020818154811061118b5761118a612c2c565b5b906000526020600020906003020160000160009054906101000a900473ffffffffffffffffffffffffffffffffffffffff1673ffffffffffffffffffffffffffffffffffffffff166108fc889081150290604051600060405180830381858888f19350505050158015611202573d6000803e3d6000fd5b505050505050505061122a565b808061121a90612d62565b91505061110a565b505050505050505b50565b6000808260008151811061124457611243612c2c565b5b602002602001015190506000611264828661125f91906130fc565b6117c2565b905060005b84518110156112e15760006112a286838151811061128a57611289612c2c565b5b60200260200101518861129d91906130fc565b6117c2565b9050828112156112cd578092508582815181106112c2576112c1612c2c565b5b602002602001015193505b5080806112d990612d62565b915050611269565b50819250505092915050565b6008600081548092919061130090612d62565b9190505550565b61130f6122de565b6113176122de565b61132e858585846117e4909392919063ffffffff16565b9150509392505050565b6113d0828260405160240161134e929190613190565b6040516020818303038152906040527f4b5c4277000000000000000000000000000000000000000000000000000000007bffffffffffffffffffffffffffffffffffffffffffffffffffffffff19166020820180517bffffffffffffffffffffffffffffffffffffffffffffffffffffffff8381831617835250505050611894565b5050565b6113eb8284608001516118bd90919063ffffffff16565b6114028184608001516118bd90919063ffffffff16565b505050565b61141e8284608001516118bd90919063ffffffff16565b6114358184608001516118e290919063ffffffff16565b505050565b6000611469600360009054906101000a900473ffffffffffffffffffffffffffffffffffffffff16848461198f565b905092915050565b600080600061148d620151808561148891906131f6565b611a5b565b8093508194508295505050509193909250565b606060008214156114e8576040518060400160405280600181526020017f300000000000000000000000000000000000000000000000000000000000000081525090506115fc565b600082905060005b6000821461151a57808061150390612d62565b915050600a8261151391906131f6565b91506114f0565b60008167ffffffffffffffff811115611536576115356123c5565b5b6040519080825280601f01601f1916602001820160405280156115685781602001600182028036833780820191505090505b5090505b600085146115f5576001826115819190613227565b9150600a85611590919061325b565b603061159c91906130a6565b60f81b8183815181106115b2576115b1612c2c565b5b60200101907effffffffffffffffffffffffffffffffffffffffffffffffffffffffffffff1916908160001a905350600a856115ee91906131f6565b945061156c565b8093505050505b919050565b600660009054906101000a900473ffffffffffffffffffffffffffffffffffffffff1673ffffffffffffffffffffffffffffffffffffffff163373ffffffffffffffffffffffffffffffffffffffff1614611691576040517f08c379a0000000000000000000000000000000000000000000000000000000008152600401611688906132d8565b60405180910390fd5b565b3373ffffffffffffffffffffffffffffffffffffffff168173ffffffffffffffffffffffffffffffffffffffff161415611702576040517f08c379a00000000000000000000000000000000000000000000000000000000081526004016116f990613344565b60405180910390fd5b80600760006101000a81548173ffffffffffffffffffffffffffffffffffffffff021916908373ffffffffffffffffffffffffffffffffffffffff1602179055508073ffffffffffffffffffffffffffffffffffffffff16600660009054906101000a900473ffffffffffffffffffffffffffffffffffffffff1673ffffffffffffffffffffffffffffffffffffffff167fed8889f560326eb138920d842192f0eb3dd22b4f139c87a2c57538e05bae127860405160405180910390a350565b6000808212156117db57816117d690613364565b6117dd565b815b9050919050565b6117ec6122de565b6117fc8560800151610100611bfa565b508385600001818152505082856020019073ffffffffffffffffffffffffffffffffffffffff16908173ffffffffffffffffffffffffffffffffffffffff16815250508185604001907bffffffffffffffffffffffffffffffffffffffffffffffffffffffff191690817bffffffffffffffffffffffffffffffffffffffffffffffffffffffff191681525050849050949350505050565b60008151905060006a636f6e736f6c652e6c6f679050602083016000808483855afa5050505050565b6118ca8260038351611c64565b6118dd8183611de990919063ffffffff16565b505050565b7fffffffffffffffffffffffffffffffffffffffffffffffff0000000000000000811215611919576119148282611e0b565b61198b565b67ffffffffffffffff811315611938576119338282611e82565b61198a565b600081126119515761194c82600083611c64565b611989565b611988826001837fffffffffffffffffffffffffffffffffffffffffffffffffffffffffffffffff61198391906130fc565b611c64565b5b5b5b5050565b60008060045490506001816119a491906130a6565b6004819055506000634042994660e01b60008087600001513089604001518760018c60800151600001516040516024016119e598979695949392919061343d565b604051602081830303815290604052907bffffffffffffffffffffffffffffffffffffffffffffffffffffffff19166020820180517bffffffffffffffffffffffffffffffffffffffffffffffffffffffff83818316178352505050509050611a5086838684611ece565b925050509392505050565b600080600080849050600062253d8c62010bd983611a7991906134c2565b611a8391906134c2565b9050600062023ab1826004611a989190613556565b611aa2919061366d565b9050600460038262023ab1611ab79190613556565b611ac191906134c2565b611acb919061366d565b82611ad691906130fc565b9150600062164b09600184611aeb91906134c2565b610fa0611af89190613556565b611b02919061366d565b9050601f6004826105b5611b169190613556565b611b20919061366d565b84611b2b91906130fc565b611b3591906134c2565b9250600061098f846050611b499190613556565b611b53919061366d565b9050600060508261098f611b679190613556565b611b71919061366d565b85611b7c91906130fc565b9050600b82611b8b919061366d565b945084600c611b9a9190613556565b600283611ba791906134c2565b611bb191906130fc565b91508483603186611bc291906130fc565b6064611bce9190613556565b611bd891906134c2565b611be291906134c2565b92508298508197508096505050505050509193909250565b611c0261234b565b6000602083611c11919061325b565b14611c3d57602082611c23919061325b565b6020611c2f9190613227565b82611c3a91906130a6565b91505b81836020018181525050604051808452600081528281016020016040525082905092915050565b60178167ffffffffffffffff1611611c9b57611c958160058460ff16901b60ff16178461206390919063ffffffff16565b50611de4565b60ff8167ffffffffffffffff1611611cf157611cca601860058460ff16901b178461206390919063ffffffff16565b50611ceb8167ffffffffffffffff166001856120839092919063ffffffff16565b50611de3565b61ffff8167ffffffffffffffff1611611d4857611d21601960058460ff16901b178461206390919063ffffffff16565b50611d428167ffffffffffffffff166002856120839092919063ffffffff16565b50611de2565b63ffffffff8167ffffffffffffffff1611611da157611d7a601a60058460ff16901b178461206390919063ffffffff16565b50611d9b8167ffffffffffffffff166004856120839092919063ffffffff16565b50611de1565b611dbe601b60058460ff16901b178461206390919063ffffffff16565b50611ddf8167ffffffffffffffff166008856120839092919063ffffffff16565b505b5b5b5b505050565b611df161234b565b611e03838460000151518485516120a5565b905092915050565b611e2960036005600660ff16901b178361206390919063ffffffff16565b50611e7e82827fffffffffffffffffffffffffffffffffffffffffffffffffffffffffffffffff611e5a91906130fc565b604051602001611e6a91906128ec565b604051602081830303815290604052612194565b5050565b611ea060026005600660ff16901b178361206390919063ffffffff16565b50611eca8282604051602001611eb691906128ec565b604051602081830303815290604052612194565b5050565b60003084604051602001611ee3929190613790565b604051602081830303815290604052805190602001209050846005600083815260200190815260200160002060006101000a81548173ffffffffffffffffffffffffffffffffffffffff021916908373ffffffffffffffffffffffffffffffffffffffff160217905550807fb5e6e01e79f91267dc17b4e6314d5d4d03593d2ceee0fbb452b750bd70ea5af960405160405180910390a2600260009054906101000a900473ffffffffffffffffffffffffffffffffffffffff1673ffffffffffffffffffffffffffffffffffffffff16634000aea08685856040518463ffffffff1660e01b8152600401611fd9939291906137bc565b6020604051808303816000875af1158015611ff8573d6000803e3d6000fd5b505050506040513d601f19601f8201168201806040525081019061201c9190613832565b61205b576040517f08c379a0000000000000000000000000000000000000000000000000000000008152600401612052906138d1565b60405180910390fd5b949350505050565b61206b61234b565b61207b83846000015151846121b9565b905092915050565b61208b61234b565b61209c848560000151518585612210565b90509392505050565b6120ad61234b565b82518211156120bb57600080fd5b846020015182856120cc91906130a6565b1115612101576121008560026120f1886020015188876120ec91906130a6565b61229e565b6120fb91906138f1565b6122ba565b5b6000808651805187602083010193508088870111156121205787860182525b60208701925050505b60208410612167578051825260208261214291906130a6565b915060208161215191906130a6565b90506020846121609190613227565b9350612129565b60006001856020036101000a03905080198251168184511681811785525050508692505050949350505050565b6121a18260028351611c64565b6121b48183611de990919063ffffffff16565b505050565b6121c161234b565b836020015183106121e7576121e684600286602001516121e191906138f1565b6122ba565b5b8351805160208583010184815381861415612203576001820183525b5050508390509392505050565b61221861234b565b8460200151848361222991906130a6565b111561225157612250856002868561224191906130a6565b61224b91906138f1565b6122ba565b5b60006001836101006122639190613a7e565b61226d9190613227565b905085518386820101858319825116178152815185880111156122905784870182525b505085915050949350505050565b6000818311156122b0578290506122b4565b8190505b92915050565b6000826000015190506122cd8383611bfa565b506122d88382611de9565b50505050565b6040518060a0016040528060008019168152602001600073ffffffffffffffffffffffffffffffffffffffff16815260200160007bffffffffffffffffffffffffffffffffffffffffffffffffffffffff191681526020016000815260200161234561234b565b81525090565b604051806040016040528060608152602001600081525090565b6000604051905090565b600080fd5b600080fd5b6000819050919050565b61238c81612379565b811461239757600080fd5b50565b6000813590506123a981612383565b92915050565b600080fd5b6000601f19601f8301169050919050565b7f4e487b7100000000000000000000000000000000000000000000000000000000600052604160045260246000fd5b6123fd826123b4565b810181811067ffffffffffffffff8211171561241c5761241b6123c5565b5b80604052505050565b600061242f612365565b905061243b82826123f4565b919050565b600067ffffffffffffffff82111561245b5761245a6123c5565b5b602082029050602081019050919050565b600080fd5b600061248461247f84612440565b612425565b905080838252602082019050602084028301858111156124a7576124a661246c565b5b835b818110156124d057806124bc888261239a565b8452602084019350506020810190506124a9565b5050509392505050565b600082601f8301126124ef576124ee6123af565b5b81356124ff848260208601612471565b91505092915050565b6000806040838503121561251f5761251e61236f565b5b600061252d8582860161239a565b925050602083013567ffffffffffffffff81111561254e5761254d612374565b5b61255a858286016124da565b9150509250929050565b61256d81612379565b82525050565b60006020820190506125886000830184612564565b92915050565b6000819050919050565b6125a18161258e565b81146125ac57600080fd5b50565b6000813590506125be81612598565b92915050565b6000602082840312156125da576125d961236f565b5b60006125e8848285016125af565b91505092915050565b6125fa8161258e565b82525050565b7f4e487b7100000000000000000000000000000000000000000000000000000000600052602160045260246000fd5b600381106126405761263f612600565b5b50565b60008190506126518261262f565b919050565b600061266182612643565b9050919050565b61267181612656565b82525050565b600060c08201905061268c60008301896125f1565b61269960208301886125f1565b6126a660408301876125f1565b6126b360608301866125f1565b6126c06080830185612668565b6126cd60a08301846125f1565b979650505050505050565b6000819050919050565b6126eb816126d8565b82525050565b600060208201905061270660008301846126e2565b92915050565b612715816126d8565b811461272057600080fd5b50565b6000813590506127328161270c565b92915050565b6000806040838503121561274f5761274e61236f565b5b600061275d85828601612723565b925050602061276e858286016125af565b9150509250929050565b6000806040838503121561278f5761278e61236f565b5b600061279d858286016125af565b92505060206127ae858286016125af565b9150509250929050565b600073ffffffffffffffffffffffffffffffffffffffff82169050919050565b60006127e3826127b8565b9050919050565b6127f3816127d8565b82525050565b600060208201905061280e60008301846127ea565b92915050565b60008060006060848603121561282d5761282c61236f565b5b600061283b868287016125af565b935050602061284c868287016125af565b925050604061285d868287016125af565b9150509250925092565b6000612872826127b8565b9050919050565b61288281612867565b82525050565b600060608201905061289d6000830186612879565b6128aa60208301856125f1565b6128b760408301846125f1565b949350505050565b6000602082840312156128d5576128d461236f565b5b60006128e384828501612723565b91505092915050565b600060208201905061290160008301846125f1565b92915050565b600081519050919050565b600082825260208201905092915050565b60005b83811015612941578082015181840152602081019050612926565b83811115612950576000848401525b50505050565b600061296182612907565b61296b8185612912565b935061297b818560208601612923565b612984816123b4565b840191505092915050565b600060208201905081810360008301526129a98184612956565b905092915050565b6129ba816127d8565b81146129c557600080fd5b50565b6000813590506129d7816129b1565b92915050565b6000602082840312156129f3576129f261236f565b5b6000612a01848285016129c8565b91505092915050565b7f536f75726365206d75737420626520746865206f7261636c65206f662074686560008201527f2072657175657374000000000000000000000000000000000000000000000000602082015250565b6000612a66602883612912565b9150612a7182612a0a565b604082019050919050565b60006020820190508181036000830152612a9581612a59565b9050919050565b7f4245545f4e4f545f455849535400000000000000000000000000000000000000600082015250565b6000612ad2600d83612912565b9150612add82612a9c565b602082019050919050565b60006020820190508181036000830152612b0181612ac5565b9050919050565b7f596f752063616e206e6f742070617274696369706174652c2074696d6520697360008201527f2064756500000000000000000000000000000000000000000000000000000000602082015250565b6000612b64602483612912565b9150612b6f82612b08565b604082019050919050565b60006020820190508181036000830152612b9381612b57565b9050919050565b7f596f75206d75737420626574207468652073616d65206f72206d6f726520616d60008201527f6f756e7400000000000000000000000000000000000000000000000000000000602082015250565b6000612bf6602483612912565b9150612c0182612b9a565b604082019050919050565b60006020820190508181036000830152612c2581612be9565b9050919050565b7f4e487b7100000000000000000000000000000000000000000000000000000000600052603260045260246000fd5b7f596f7520616c7265616479206a6f696e65642074686973206265740000000000600082015250565b6000612c91601b83612912565b9150612c9c82612c5b565b602082019050919050565b60006020820190508181036000830152612cc081612c84565b9050919050565b7f596f752063616e277420626574206f6e207468652073616d6520707269636500600082015250565b6000612cfd601f83612912565b9150612d0882612cc7565b602082019050919050565b60006020820190508181036000830152612d2c81612cf0565b9050919050565b7f4e487b7100000000000000000000000000000000000000000000000000000000600052601160045260246000fd5b6000612d6d8261258e565b91507fffffffffffffffffffffffffffffffffffffffffffffffffffffffffffffffff821415612da057612d9f612d33565b5b600182019050919050565b7f4d7573742062652070726f706f736564206f776e657200000000000000000000600082015250565b6000612de1601683612912565b9150612dec82612dab565b602082019050919050565b60006020820190508181036000830152612e1081612dd4565b9050919050565b7f596f75206d7573742073656e6420736f6d652045544820616e6420707265646960008201527f6374207072696365000000000000000000000000000000000000000000000000602082015250565b6000612e73602883612912565b9150612e7e82612e17565b604082019050919050565b60006020820190508181036000830152612ea281612e66565b9050919050565b600081905092915050565b7f68747470733a2f2f6170692e636f696e6765636b6f2e636f6d2f6170692f763360008201527f2f636f696e732f657468657265756d2f686973746f72793f646174653d000000602082015250565b6000612f10603d83612ea9565b9150612f1b82612eb4565b603d82019050919050565b6000612f3182612907565b612f3b8185612ea9565b9350612f4b818560208601612923565b80840191505092915050565b6000612f6282612f03565b9150612f6e8284612f26565b915081905092915050565b7f3000000000000000000000000000000000000000000000000000000000000000815250565b6000612faa82612f79565b600182019150612fba8284612f26565b915081905092915050565b7f2d00000000000000000000000000000000000000000000000000000000000000815250565b6000612ff78286612f26565b915061300282612fc5565b6001820191506130128285612f26565b915061301d82612fc5565b60018201915061302d8284612f26565b9150819050949350505050565b7f54696d65206973206e6f74206475652079657400000000000000000000000000600082015250565b6000613070601383612912565b915061307b8261303a565b602082019050919050565b6000602082019050818103600083015261309f81613063565b9050919050565b60006130b18261258e565b91506130bc8361258e565b9250827fffffffffffffffffffffffffffffffffffffffffffffffffffffffffffffffff038211156130f1576130f0612d33565b5b828201905092915050565b600061310782612379565b915061311283612379565b9250827f80000000000000000000000000000000000000000000000000000000000000000182126000841215161561314d5761314c612d33565b5b827f7fffffffffffffffffffffffffffffffffffffffffffffffffffffffffffffff01821360008412161561318557613184612d33565b5b828203905092915050565b600060408201905081810360008301526131aa8185612956565b905081810360208301526131be8184612956565b90509392505050565b7f4e487b7100000000000000000000000000000000000000000000000000000000600052601260045260246000fd5b60006132018261258e565b915061320c8361258e565b92508261321c5761321b6131c7565b5b828204905092915050565b60006132328261258e565b915061323d8361258e565b9250828210156132505761324f612d33565b5b828203905092915050565b60006132668261258e565b91506132718361258e565b925082613281576132806131c7565b5b828206905092915050565b7f4f6e6c792063616c6c61626c65206279206f776e657200000000000000000000600082015250565b60006132c2601683612912565b91506132cd8261328c565b602082019050919050565b600060208201905081810360008301526132f1816132b5565b9050919050565b7f43616e6e6f74207472616e7366657220746f2073656c66000000000000000000600082015250565b600061332e601783612912565b9150613339826132f8565b602082019050919050565b6000602082019050818103600083015261335d81613321565b9050919050565b600061336f82612379565b91507f80000000000000000000000000000000000000000000000000000000000000008214156133a2576133a1612d33565b5b816000039050919050565b60007fffffffff0000000000000000000000000000000000000000000000000000000082169050919050565b6133e2816133ad565b82525050565b600081519050919050565b600082825260208201905092915050565b600061340f826133e8565b61341981856133f3565b9350613429818560208601612923565b613432816123b4565b840191505092915050565b600061010082019050613453600083018b6127ea565b613460602083018a6125f1565b61346d60408301896126e2565b61347a60608301886127ea565b61348760808301876133d9565b61349460a08301866125f1565b6134a160c08301856125f1565b81810360e08301526134b38184613404565b90509998505050505050505050565b60006134cd82612379565b91506134d883612379565b9250817f7fffffffffffffffffffffffffffffffffffffffffffffffffffffffffffffff0383136000831215161561351357613512612d33565b5b817f800000000000000000000000000000000000000000000000000000000000000003831260008312161561354b5761354a612d33565b5b828201905092915050565b600061356182612379565b915061356c83612379565b9250827f7fffffffffffffffffffffffffffffffffffffffffffffffffffffffffffffff04821160008413600084131616156135ab576135aa612d33565b5b817f800000000000000000000000000000000000000000000000000000000000000005831260008412600084131616156135e8576135e7612d33565b5b827f8000000000000000000000000000000000000000000000000000000000000000058212600084136000841216161561362557613624612d33565b5b827f7fffffffffffffffffffffffffffffffffffffffffffffffffffffffffffffff058212600084126000841216161561366257613661612d33565b5b828202905092915050565b600061367882612379565b915061368383612379565b925082613693576136926131c7565b5b600160000383147f8000000000000000000000000000000000000000000000000000000000000000831416156136cc576136cb612d33565b5b828205905092915050565b6000819050919050565b60006136fc6136f76136f2846127b8565b6136d7565b6127b8565b9050919050565b600061370e826136e1565b9050919050565b600061372082613703565b9050919050565b60008160601b9050919050565b600061373f82613727565b9050919050565b600061375182613734565b9050919050565b61376961376482613715565b613746565b82525050565b6000819050919050565b61378a6137858261258e565b61376f565b82525050565b600061379c8285613758565b6014820191506137ac8284613779565b6020820191508190509392505050565b60006060820190506137d160008301866127ea565b6137de60208301856125f1565b81810360408301526137f08184613404565b9050949350505050565b60008115159050919050565b61380f816137fa565b811461381a57600080fd5b50565b60008151905061382c81613806565b92915050565b6000602082840312156138485761384761236f565b5b60006138568482850161381d565b91505092915050565b7f756e61626c6520746f207472616e73666572416e6443616c6c20746f206f726160008201527f636c650000000000000000000000000000000000000000000000000000000000602082015250565b60006138bb602383612912565b91506138c68261385f565b604082019050919050565b600060208201905081810360008301526138ea816138ae565b9050919050565b60006138fc8261258e565b91506139078361258e565b9250817fffffffffffffffffffffffffffffffffffffffffffffffffffffffffffffffff04831182151516156139405761393f612d33565b5b828202905092915050565b60008160011c9050919050565b6000808291508390505b60018511156139a25780860481111561397e5761397d612d33565b5b600185161561398d5780820291505b808102905061399b8561394b565b9450613962565b94509492505050565b6000826139bb5760019050613a77565b816139c95760009050613a77565b81600181146139df57600281146139e957613a18565b6001915050613a77565b60ff8411156139fb576139fa612d33565b5b8360020a915084821115613a1257613a11612d33565b5b50613a77565b5060208310610133831016604e8410600b8410161715613a4d5782820a905083811115613a4857613a47612d33565b5b613a77565b613a5a8484846001613958565b92509050818404811115613a7157613a70612d33565b5b81810290505b9392505050565b6000613a898261258e565b9150613a948361258e565b9250613ac17fffffffffffffffffffffffffffffffffffffffffffffffffffffffffffffffff84846139ab565b90509291505056fea264697066735822122035464dc2242b1a7c4d15b1645c3d0a1a3e9c086b3c232861cc456a6e0889f88e64736f6c634300080c0033",
    "linkReferences": {},
    "deployedLinkReferences": {}
}